{
  "contractName": "Lottery",
  "abi": [
    {
      "constant": true,
      "inputs": [
        {
          "name": "",
          "type": "address"
        }
      ],
      "name": "holderOfAddress",
      "outputs": [
        {
          "name": "tokensObtained",
          "type": "uint256"
        }
      ],
      "payable": false,
      "stateMutability": "view",
      "type": "function"
    },
    {
      "constant": true,
      "inputs": [
        {
          "name": "",
          "type": "uint256"
        }
      ],
      "name": "participantsAddresses",
      "outputs": [
        {
          "name": "",
          "type": "address"
        }
      ],
      "payable": false,
      "stateMutability": "view",
      "type": "function"
    },
    {
      "inputs": [
        {
          "name": "winningGuess",
          "type": "uint256"
        }
      ],
      "payable": false,
      "stateMutability": "nonpayable",
      "type": "constructor"
    },
    {
      "constant": false,
      "inputs": [],
      "name": "buyLotteryTickets",
      "outputs": [],
      "payable": true,
      "stateMutability": "payable",
      "type": "function"
    },
    {
      "constant": false,
      "inputs": [
        {
          "name": "guess",
          "type": "uint256"
        }
      ],
      "name": "makeGuess",
      "outputs": [],
      "payable": false,
      "stateMutability": "nonpayable",
      "type": "function"
    },
    {
      "constant": false,
      "inputs": [],
      "name": "winnerAddress",
      "outputs": [
        {
          "name": "",
          "type": "address"
        }
      ],
      "payable": false,
      "stateMutability": "nonpayable",
      "type": "function"
    },
    {
      "constant": false,
      "inputs": [],
      "name": "closeGame",
      "outputs": [
        {
          "name": "",
          "type": "address"
        }
      ],
      "payable": false,
      "stateMutability": "nonpayable",
      "type": "function"
    },
    {
      "constant": false,
      "inputs": [],
      "name": "getPrice",
      "outputs": [],
      "payable": false,
      "stateMutability": "nonpayable",
      "type": "function"
    }
  ],
  "bytecode": "0x6060604052341561000f57600080fd5b604051602080610a0183398101604052808051906020019091905050336000806101000a81548173ffffffffffffffffffffffffffffffffffffffff021916908373ffffffffffffffffffffffffffffffffffffffff1602179055506001600360006101000a81548160ff02191690831515021790555080604051808281526020019150506040518091039020600581600019169055505061094b806100b66000396000f300606060405260043610610083576000357c0100000000000000000000000000000000000000000000000000000000900463ffffffff16806322666da614610088578063786b844b146100ab5780638c9823c51461010057806398d5fdca1461014d578063a6d5442714610162578063e94b375e1461016c578063ed7a4e0b146101cf575b600080fd5b341561009357600080fd5b6100a96004808035906020019091905050610224565b005b34156100b657600080fd5b6100be6103ce565b604051808273ffffffffffffffffffffffffffffffffffffffff1673ffffffffffffffffffffffffffffffffffffffff16815260200191505060405180910390f35b341561010b57600080fd5b610137600480803573ffffffffffffffffffffffffffffffffffffffff169060200190919050506104b6565b6040518082815260200191505060405180910390f35b341561015857600080fd5b6101606104d4565b005b61016a610619565b005b341561017757600080fd5b61018d60048080359060200190919050506106f2565b604051808273ffffffffffffffffffffffffffffffffffffffff1673ffffffffffffffffffffffffffffffffffffffff16815260200191505060405180910390f35b34156101da57600080fd5b6101e2610731565b604051808273ffffffffffffffffffffffffffffffffffffffff1673ffffffffffffffffffffffffffffffffffffffff16815260200191505060405180910390f35b6000811180156102365750620f424081105b801561028457506000600460003373ffffffffffffffffffffffffffffffffffffffff1673ffffffffffffffffffffffffffffffffffffffff16815260200190815260200160002060010154115b80156102a3575060011515600360009054906101000a900460ff161515145b15156102ae57600080fd5b600460003373ffffffffffffffffffffffffffffffffffffffff1673ffffffffffffffffffffffffffffffffffffffff168152602001908152602001600020600001805480600101828161030291906108a2565b9160005260206000209001600083909190915055506001600460003373ffffffffffffffffffffffffffffffffffffffff1673ffffffffffffffffffffffffffffffffffffffff168152602001908152602001600020600101600082825403925050819055506002805480600101828161037c91906108ce565b9160005260206000209001600033909190916101000a81548173ffffffffffffffffffffffffffffffffffffffff021916908373ffffffffffffffffffffffffffffffffffffffff1602179055505050565b60008060009054906101000a900473ffffffffffffffffffffffffffffffffffffffff1673ffffffffffffffffffffffffffffffffffffffff163373ffffffffffffffffffffffffffffffffffffffff1614151561042b57600080fd5b6000600360006101000a81548160ff02191690831515021790555061044e610731565b600160006101000a81548173ffffffffffffffffffffffffffffffffffffffff021916908373ffffffffffffffffffffffffffffffffffffffff160217905550600160009054906101000a900473ffffffffffffffffffffffffffffffffffffffff16905090565b60046020528060005260406000206000915090508060010154905081565b600160009054906101000a900473ffffffffffffffffffffffffffffffffffffffff1673ffffffffffffffffffffffffffffffffffffffff163373ffffffffffffffffffffffffffffffffffffffff1614151561053057600080fd5b3373ffffffffffffffffffffffffffffffffffffffff166108fc60023073ffffffffffffffffffffffffffffffffffffffff163181151561056d57fe5b049081150290604051600060405180830381858888f19350505050151561059357600080fd5b6000809054906101000a900473ffffffffffffffffffffffffffffffffffffffff1673ffffffffffffffffffffffffffffffffffffffff166108fc60023073ffffffffffffffffffffffffffffffffffffffff16318115156105f157fe5b049081150290604051600060405180830381858888f19350505050151561061757600080fd5b565b600060011515600360009054906101000a900460ff16151514151561063d57600080fd5b670de0b6b3a76400003481151561065057fe5b0490503373ffffffffffffffffffffffffffffffffffffffff166108fc670de0b6b3a7640000830234039081150290604051600060405180830381858888f19350505050151561069f57600080fd5b80600460003373ffffffffffffffffffffffffffffffffffffffff1673ffffffffffffffffffffffffffffffffffffffff1681526020019081526020016000206001016000828254019250508190555050565b60028181548110151561070157fe5b90600052602060002090016000915054906101000a900473ffffffffffffffffffffffffffffffffffffffff1681565b600080600080600092505b600280549050831015610877576004600060028581548110151561075c57fe5b906000526020600020900160009054906101000a900473ffffffffffffffffffffffffffffffffffffffff1673ffffffffffffffffffffffffffffffffffffffff1673ffffffffffffffffffffffffffffffffffffffff1681526020019081526020016000209150600090505b816000018054905081101561086a576005546000191682600001828154811015156107f057fe5b90600052602060002090015460405180828152602001915050604051809103902060001916141561085d5760028381548110151561082a57fe5b906000526020600020900160009054906101000a900473ffffffffffffffffffffffffffffffffffffffff16935061089c565b80806001019150506107c9565b828060010193505061073c565b6000809054906101000a900473ffffffffffffffffffffffffffffffffffffffff1693505b50505090565b8154818355818115116108c9578183600052602060002091820191016108c891906108fa565b5b505050565b8154818355818115116108f5578183600052602060002091820191016108f491906108fa565b5b505050565b61091c91905b80821115610918576000816000905550600101610900565b5090565b905600a165627a7a7230582093e8b4de57011cb4e5f994c42c46ac3121973783a7c93e7756575e51e13122c60029",
  "source": "pragma solidity ^0.4.0;\r\n\r\ncontract Lottery{\r\n    address owner;\r\n    address winner;\r\n    uint constant price = 1 ether;\r\n    address[] public participantsAddresses;\r\n    bool lotteryOn;\r\n    \r\n    struct TicketHolder{\r\n        uint[] guess;\r\n        uint tokensObtained;\r\n    }\r\n    \r\n    mapping (address => TicketHolder) public holderOfAddress;\r\n    bytes32 WinningGuess;\r\n    \r\n    modifier onlyOwner{\r\n        require(msg.sender == owner);\r\n        _;\r\n    }\r\n    \r\n    modifier onlyWinner{\r\n        require(msg.sender == winner);\r\n        _;\r\n    }\r\n    \r\n    function Lottery(uint winningGuess) public{\r\n        owner = msg.sender;\r\n        lotteryOn = true;\r\n        WinningGuess = keccak256(winningGuess);\r\n    }\r\n    \r\n    function buyLotteryTickets() public payable{\r\n        require(lotteryOn == true);\r\n        uint tickets = msg.value/price;\r\n        msg.sender.transfer(msg.value - tickets*price);\r\n        holderOfAddress[msg.sender].tokensObtained += tickets;\r\n    }\r\n    \r\n    function makeGuess(uint guess) public{\r\n        require(guess>0 && guess<1000000 && holderOfAddress[msg.sender].tokensObtained > 0 && lotteryOn == true);\r\n        holderOfAddress[msg.sender].guess.push(guess);\r\n        holderOfAddress[msg.sender].tokensObtained -= 1;\r\n        participantsAddresses.push(msg.sender);\r\n    }\r\n    \r\n    function winnerAddress() returns(address){\r\n        for(uint i = 0; i < participantsAddresses.length; i++)\r\n        {\r\n            TicketHolder holder = holderOfAddress[participantsAddresses[i]];\r\n\r\n            for(uint j = 0; j < holder.guess.length; j++) \r\n            {\r\n                  if (keccak256(holder.guess[j]) == WinningGuess)\r\n                  {\r\n                      return participantsAddresses[i];\r\n                  }\r\n            }\r\n        }\r\n        return owner;\r\n    } \r\n    \r\n    function closeGame() public onlyOwner returns(address){\r\n        lotteryOn = false;\r\n        winner = winnerAddress();\r\n        return winner;\r\n    }\r\n    \r\n    function getPrice() public onlyWinner{\r\n        msg.sender.transfer(address(this).balance/2);\r\n        owner.transfer(address(this).balance/2);\r\n    }\r\n}",
  "sourcePath": "C:\\Users\\amazt\\Desktop\\WorkFiles\\LotterySystem\\contracts\\Lottery.sol",
  "compiler": {
    "name": "solc",
    "version": "0.4.21+commit.dfe3193c.Emscripten.clang"
  },
  "schemaVersion": "2.0.0",
  "updatedAt": "2018-04-14T22:43:09.000Z"
}